:100000000C942A000C943F000C943F000C943F0089
:100010000C943F000C943F000C943F000C943F0064
:100020000C943F000C943F000C943F000C943F0054
:100030000C943F000C943F000C943F000C943F0044
:100040000C943F000C943F000C943F000C943F0034
:100050000C943F0011241FBECFE5D8E0DEBFCDBF1A
:1000600010E0A0E6B0E0E0E1F5E002C005900D92FE
:10007000A637B107D9F70E94E0010C9486020C94D0
:10008000000087B1806487B986B1806886B986B17F
:10009000876086B9089597B1907E97B997B1892BFB
:1000A00087B986B1806486B93699FECF84B195B19F
:1000B00008959BB394609BBB84FF04C09BB3906185
:1000C0009BBB03C09BB39F7E9BBB85FF04C09BB3C0
:1000D00090629BBB03C09BB39F7D9BBB86FF04C00C
:1000E0009BB390649BBB03C09BB39F7B9BBB88234C
:1000F00024F49BB390689BBB03C09BB39F779BBBCF
:100100009BB398609BBBEFE9FFE03197F1F700C02C
:1001100000009BB3977F9BBBEFE9FFE03197F1F7BE
:1001200000C0000080FF04C09BB390619BBB03C074
:100130009BB39F7E9BBB81FF04C09BB390629BBB24
:1001400003C09BB39F7D9BBB82FF04C09BB39064A5
:100150009BBB03C09BB39F7B9BBB83FF04C08BB344
:1001600080688BBB03C08BB38F778BBB8BB38860EE
:100170008BBB8FE99FE00197F1F700C000008BB3C4
:10018000877F8BBBEFE9FFE03197F1F700C00000FC
:1001900008959BB39B7F9BBB84FF04C09BB390617E
:1001A0009BBB03C09BB39F7E9BBB85FF04C09BB3DF
:1001B00090629BBB03C09BB39F7D9BBB86FF04C02B
:1001C0009BB390649BBB03C09BB39F7B9BBB88236B
:1001D00024F49BB390689BBB03C09BB39F779BBBEE
:1001E0009BB398609BBBEFE9FFE03197F1F700C04C
:1001F00000009BB3977F9BBBEFE9FFE03197F1F7DE
:1002000000C0000080FF04C09BB390619BBB03C093
:100210009BB39F7E9BBB81FF04C09BB390629BBB43
:1002200003C09BB39F7D9BBB82FF04C09BB39064C4
:100230009BBB03C09BB39F7B9BBB83FF04C08BB363
:1002400080688BBB03C08BB38F778BBB8BB388600D
:100250008BBB8FE99FE00197F1F700C000008BB3E3
:10026000877F8BBBEFE9FFE03197F1F700C000001B
:1002700008958AB38C6F8ABB83E00E94C9008FE720
:100280009EE30197F1F700C0000083E00E94C900DF
:100290008FE79EE30197F1F700C0000083E00E9422
:1002A000C9008FE79EE30197F1F700C0000082E0EC
:1002B0000E94C90088E20E94C90081E00E94C90032
:1002C00086E00E94C9008CE00E94C9009FEF29EFE0
:1002D00080E0915020408040E1F700C00000089588
:1002E0000F931F93CF93DF93CDB7DEB72A970FB647
:1002F000F894DEBF0FBECDBF99234CF49095809546
:10030000709561957F4F8F4F9F4F01E001C000E0D6
:100310006115710581059105D1F480E30E945900B2
:1003200031C02AE030E040E050E00E945802E1E0B5
:10033000F0E0EC0FFD1FE10FF11D17FDFA95605D78
:100340006083622F732F842F952F1F5F01C010E0F1
:10035000611571058105910521F71150013081F476
:100360008DE20E9459000CC0E1E0F0E0EC0FFD1FAF
:10037000E10FF11D17FDFA9580810E94590011507F
:10038000112394F72A960FB6F894DEBF0FBECDBFA7
:10039000DF91CF911F910F9108950F931F93CF93EA
:1003A0008C01C0E003C00E945900CF5FF801EC0F40
:1003B000F11D80818111F7CFCF911F910F91089589
:1003C0000E9441000E94390180E690E00E94CD0128
:1003D00081B3816081BB81B3826081BB80E00E9478
:1003E0004B009C01A6E9B0E00E9477022FEF33E0BA
:1003F00040E050E00E94360269017A01293131055E
:1004000038F482B3816082BB82B38D7F82BB10C01F
:100410002F31310538F082B3826082BB82B38E7F88
:1004200082BB06C082B38E7F82BB82B38D7F82BBCC
:100430008CE80E94C9008DE690E00E94CD018CE816
:100440000E94C900C701B601882799270E94700140
:1004500082E790E00E94CD012FEF89E698E12150DC
:1004600080409040E1F700C00000B8CFA1E21A2E12
:10047000AA1BBB1BFD010DC0AA1FBB1FEE1FFF1F48
:10048000A217B307E407F50720F0A21BB30BE40B98
:10049000F50B661F771F881F991F1A9469F76095DF
:1004A0007095809590959B01AC01BD01CF01089599
:1004B000052E97FB1EF400940E946F0257FD07D093
:1004C0000E94360207FC03D04EF40C946F02509544
:1004D0004095309521953F4F4F4F5F4F0895909530
:1004E0008095709561957F4F8F4F9F4F0895A29F84
:1004F000B001B39FC001A39F700D811D1124911DF8
:10050000B29F700D811D1124911D0895F894FFCFA5
:1005100054656D70657261747572653A00202020B3
:0605200020002043000052
:00000001FF
